:020000041400E6
:1000000000800020D101001491010014930100141C
:1000100095010014970100149901001400000000DC
:100020000000000000000000000000009B01001420
:100030009D010014000000009F010014A1010014A4
:10004000A3010014A3010014A30100140000000088
:10005000A3010014A3010014A3010014A3010014C0
:10006000298D0010A3010014A3010014A3010014A2
:10007000A3010014D9760010A3010014A3010014F9
:10008000A3010014A3010014F5180010A30100142B
:10009000A3010014A3010014A3010014E12800101F
:1000A000412A0010A3010014A3010014A3010014AD
:1000B000A3010014A3010014A3010014A301001460
:1000C000A3010014A3010014A3010014A301001450
:1000D000A3010014A3010014A3010014A301001440
:1000E000A3010014A3010014A3010014A301001430
:1000F00000000000A3010014A3010014A3010014D8
:1001000000000000A3010014A3010014A3010014C7
:10011000A3010014C8A401141880011014090000E0
:10012000A88201140000002000000000A882011431
:100130000000081000000000A882011400800020C8
:1001400020220000C8A4011400C00020000000000C
:100150009002001400000010787D010000000014DF
:10016000000000101401000000900110440B00007A
:100170000000002000000000000008100000000047
:1001800020A200200000000000C0002000000000AD
:10019000FEE7FEE7FEE7FEE7FEE7FEE7FEE7FEE737
:1001A000FEE7FEE710B50B46401A5C1AA24203D9DF
:1001B000C45843F8044BF8E710BD10B503460022BD
:1001C0001C1AA14202D943F8042BF9E710BDFFFF26
:1001D00038B572B61B4B1C4A1A601C4A5A601C4A3E
:1001E0004FF0FF33136053609360D360136153612A
:1001F0009361D36162B6174C174DAC4201D3174DD2
:1002000007E094E803000C3454F8042CFFF7CAFF0D
:10021000F3E7AC4206D254F8080B54F8041CFFF77D
:10022000CCFFF6E7DFF84000016841F4700101609F
:100230000B4B1A680AB10B4A136000F021F800F06A
:1002400017F8FEE7003105400010DF10FFF7DF016F
:1002500080E200E014010014680100149001001411
:100260000000001008ED00E088ED00E0FFFFFFFF58
:1002700001B40248844601BC604700BF551A001013
:1002800001B40248844601BC604700BF95C7001016
:10029000000000000000000000000000000000005E
:1002A000000000000000000000000000000000004E
:1002B000000000000000000000000000000000003E
:1002C000000000000000000000000000000000002E
:1002D000000000000000000000000000000000001E
:1002E000000000000000000000000000000000000E
:1002F00000000000000000000000000000000000FE
:1003000000000000000000000000000000000000ED
:1003100000000000000000000000000000000000DD
:1003200000000000000000000000000000000000CD
:1003300000000000000000000000000000000000BD
:1003400000000000000000000000000000000000AD
:10035000000000000000000000000000000000009D
:10036000000000000000000000000000000000008D
:10037000000000000000000000000000000000007D
:10038000000000000000000000000000000000006D
:10039000000000000000000000000000000000005D
:1003A00000000000002070470020704708B5F022D0
:1003B00002230321012006F02BFA064B04229A6245
:1003C0004FF48062C3F81822A3F5003308225A6064
:1003D000002008BD0010104010B5054B00245C60E3
:1003E000F02205230321012006F012FA204610BD59
:1003F00000100E401F4B002270B5114604461868CD
:100400001D4E02F016FE054648B3227902235AB16A
:1004100041888088401A90FBF3F3194409044FF493
:10042000A073B1FBF3F30BE0C2880089801A90FB44
:10043000F3F10A44C2F1C8021204C823B2FBF3F379
:100440004FF6C0721A400D4B1A60637913B96420DD
:1004500006F012FC4FF48063C6F8143203E0074B39
:10046000C6F814021860003518BF01256571002018
:1004700070BD00BF049001100010104000100E402D
:100480000171704708B5082000F0BEFF044B0360FF
:100490000123037100234371024B186008BD00BFA4
:1004A000103D01100090011000B52DED028B884227
:1004B00008EE103A034628BF0B4687B0934228BF88
:1004C00013460291C91A03904943C01A019200FBD6
:1004D0000010D21A02FB020007EE900AF8EE677ACB
:1004E00017EE900A0BF0EAFD11F080FD0CF04CF8CD
:1004F0001E2804D8092803D80023059310E01E20E5
:10050000DFED1D7AB8EE488A28EE278A07EE900ABA
:10051000F8EEE77A28EE278ABCEEC88A8DED058AC8
:10052000059BB3F57A6F88BF4FF47A6305A888BF3F
:10053000059305F0D9FF019A0299039803F012FD83
:1005400003F028FD01AB02AA03A903F019FD039BE8
:100550008DF8113006AA029B8DF81230019B02F82B
:10056000053D0DF112010DF1110005F093FF07B0EB
:10057000BDEC028B5DF804FB8FC2753C10B592B0E8
:100580001023002440200793069400F03FFF031D32
:1005900000F1440223F8024C23F8044C0433934244
:1005A000F8D1174B089018681649A023ADF82430ED
:1005B0006423ADF8263009AA06AB05F0D7FD032366
:1005C0000093114B04221B68114606A800F03AFE66
:1005D00006AA0C4909A805F08CF905A909A805F097
:1005E00001FA04AB03AA02A903F0CAFC02A80FC8CF
:1005F000FFF75AFF089808B100F00CFF12B010BDC9
:1006000004900110B89001100491011013B501A8D5
:100610000C4606F079FB019806F07CFBA042FAD369
:1006200006F0FEFF02B010BD13B5044602A8002379
:1006300040F8043D05F042FF4EF660212046FFF7EA
:10064000E5FF6078034B03EB800005F037FF02B055
:1006500010BD00BFDC46011037B5002405464470CC
:10066000047202A840F8044D05F028FF2C7003B076
:1006700030BD10B50446FFF7EFFF204610BD000067
:100680002DE9F34100240F4E054688462746444590
:1006900014DA01A8019705F011FF4EF660212846F3
:1006A000FFF7B4FF687806EB800005F007FF4EF611
:1006B00060212846FFF7AAFF0134E8E702B0BDE851
:1006C000F08100BFDC4601101FB5A023ADF8083053
:1006D00004AB0022642123F8061D03920092411C02
:1006E000044602AA03A800F011FE002808DB054B0F
:1006F0000121186801F08EF904212046FFF7C0FFA0
:1007000004B010BD049101104378072B01D8FFF706
:100710008BBF704701292DE9F04704460F469046EC
:1007200059D9DFF8B890DFF8B8A0061D06F0AEFA88
:10073000054606F075FF2378012B09D002D3022B62
:1007400024D044E0304606F0DFFA012323703AE07B
:1007500055B1304606F0D8FA002363702046FFF703
:1007600063FF02232370E1E7606806F0D3FA48458F
:10077000DCD998F80030637004212046FFF780FF31
:100780002046FFF769FF2846BDE8F08765B9637822
:1007900088F8003004212046FFF772FF2046FFF75B
:1007A0005BFF0120BDE8F087606806F0B3FA5045B2
:1007B000BCD9304606F0A8FA63780133DBB29F4219
:1007C00008BF002363702046FFF79EFFAEE7204678
:1007D000FFF742FFAAE70020BDE8F08760E31600BC
:1007E00040420F0030B5044689B006F04FFA237A34
:1007F00005460BB321238DF8153000230293ADF885
:100800001630ADF81830694B4FF4A0721B68ADF884
:100810001A200193C82207ABADF81C20009306AA4A
:100820000DF11A030DF116010DF1150003F046FE4E
:100830002046FFF7A3FE1FE02278EAB1ADF816309C
:10084000ADF818304FF4A073ADF81A30C823ADF8E6
:100850001C3001230293554B1B680193212207ABE7
:100860008DF81520009306AA0DF11A030DF116015B
:100870000DF1150003F022FE2378052B00F28D8088
:10088000DFE803F003193159678A002D00F08880F2
:10089000201D06F039FA464B08AD1B8845F8043D8B
:1008A000284605F021FE01232370284600230793E4
:1008B00005F004FE74E00DB9257071E0606806F083
:1008C00029FA3C4B98426BD903F0AEFB10B10123DF
:1008D000637000E06070201D06F016FA2046FFF7F6
:1008E00013FF02232CE095B903212046FFF7C8FE31
:1008F000201D06F009FA627801232AB908A800F839
:10090000043D03F0D3FC00E02372032318E0606889
:1009100006F000FA284B984242D9201D06F0F4F95F
:1009200063780133DBB2082B08BF002363702046D5
:10093000FFF7EAFE34E02DB1201D06F0E5F90423AF
:1009400023702DE0606806F0E5F91C4B984227D92A
:1009500023E07DB963784BB908A800F8045D03F083
:10096000A5FC04212046FFF78BFE16E02046FFF78A
:10097000ABFE12E0606806F0CDF90E4B98420FD93D
:10098000637823B908A800F8043D03F08FFC2046E3
:10099000FFF762FE0523D3E715B92046FFF75CFE9B
:1009A0002078003018BF012009B030BD049101103B
:1009B0000C900110D012130040420F0000879303E7
:1009C00030B50468013A234608681D1BA84204D9C3
:1009D00012F8010F03F8010BF6E730BD07B500224E
:1009E00001A9054806F060FB044B0199186805F061
:1009F000BCFA03B05DF804FBE43D01100490011063
:100A000013B5074C07480022214606F04DFB02A80B
:100A1000238840F8043D05F067FD02B010BD00BF1B
:100A20000C900110FE3D011070B516460268184B7F
:100A30000D46511E9942ACB0044624D8154903A86E
:100A40000CF010FC226814490BAC13A80CF00AFC43
:100A50002946204600250CF0B9FD8DE83000A12381
:100A600013AA294603A806F047FBA84205DA2B463D
:100A70002246A12103A806F015FC3046012100F012
:100A8000C9FF002001E04FF0FF302CB070BD00BF67
:100A9000DE2B01000D3E0110203E011008B5037849
:100AA000532B08D1837A0A68303BD9B20B4B1868B4
:100AB00005F053FA06E04D2B04D1084B096818687D
:100AC00005F056FA00F08CFF38B1044B186805F0B9
:100AD00021F9BDE8084000F08DBF08BD0490011069
:100AE00030B5114D8BB001242246104902A80CF0FC
:100AF000B9FB002301AA694602A806F0D5FA00282E
:100B000010DBE1B2019A2868013405F0D9F8082C0D
:100B1000EAD1054B186805F0FDF8054B186807F099
:100B2000D1F800200BB030BD04900110683E0110D8
:100B300008900110F0B597B0074618881C9B1288E2
:100B4000ADF80C200C4619881D9BADF80E001B88D3
:100B5000ADF812302378ADF810105A1E062A37D897
:100B60001D4E32682AB91D4806F0CAFD6FF001001B
:100B700030E01B4D03AA3146286805F074F821784F
:100B8000286805F092F83B68C361054603AA314620
:100B90000DA804F095FE00210DA804F023FFA86124
:100BA00022781049002405A80CF05CFB2B4620227B
:100BB0008121009405A806F075FBFFF791FF0A4814
:100BC00006F09EFD1E98012100F024FF204601E062
:100BD0004FF0FF3017B0F0BDB8900110743E011017
:100BE00004900110683E01108D3E011070B503782D
:100BF00092B0013B0024062B05460E4611940F943B
:100C00000E940D940C940B940A941BD82146202228
:100C10000AA80CF0C3FA2A780C4902A80CF022FBAF
:100C20000AAB20228121009402A806F03BFB044677
:100C3000FFF756FFFFF754FF3046012100F0EAFEB0
:100C4000204601E04FF0FF3012B070BD683E011049
:100C5000F0B593B012AE002446F8204D074620228E
:100C60002146304611940F940E940D940C940B94DD
:100C70000CF094FA01252A460C4902A80CF0F2FA6D
:100C8000009433462022812102A806F00BFB0028A5
:100C900009DB0135082DEED1FFF722FF384601218F
:100CA00000F0B8FE002013B0F0BD00BF683E011098
:100CB0002DE97043B6B00023DFF88C9214931293A1
:100CC000119310930F930E930D9301254FF000088D
:100CD0002A468149814E15A80CF0C4FA2A4680495B
:100CE0001DA80CF0BFFA0DAB002401932023009344
:100CF0001DAA81230121029415A806F0FDF92A46B8
:100D0000784915A80CF0AEFA2A4677491DA80CF0D0
:100D1000A9FA14231DAA4FF480710294CDE9008929
:100D200015A806F0E9F9224607A915A806F0BCF9AE
:100D3000079A3068E9B205F010F96C4915A806F079
:100D4000D5FA2A466A4915A80CF08CFA2A46694950
:100D50001DA80CF087FA684B00930194A1231DAAEB
:100D6000214615A8013506F0C7F9082DB0D156A3C4
:100D7000D3E900230294CDE900234FF480711423BA
:100D80005E4A5F4806F0B8F958495D4806F0AEFA89
:100D90004FA3D3E900232146CDE900230294142375
:100DA000584A594806F0A8F90123009321460194B6
:100DB000564A574806F0A0F94FF4FA630093554A93
:100DC000019404234FF48071534806F095F9534978
:100DD000514806F08BFA40F2EE230093504A0194FA
:100DE00002234FF480714F4806F086F94FF47A756C
:100DF0004D494C4806F07AFA0095214601940223A9
:100E00004A4A4B4806F078F900952146019402239E
:100E1000484A4948494D06F06FF91423009321468A
:100E200004230194464A474806F066F9224606A97B
:100E30003F4806F039F922460DF11A013E4806F006
:100E400033F9224608A93F4806F02EF922460DF153
:100E500017012F4806F028F922460AA9284806F06B
:100E600023F922460BA9284806F01EF9224609A9B3
:100E7000294806F019F9224629462A4806F014F9AD
:100E80009DF81730BDF81A20BDF81810009330688F
:100E9000089B01F0D3FF0A99306805F069F80B99B7
:100EA000306805F077F80999306805F05EF836A8E3
:100EB0002B8840F8A83D05F017FBFFF711FE36B070
:100EC000BDE87083AFF30080000000A09999B93F9E
:100ED000000000C0CCCCFC3F683E01100490011023
:100EE0009D3E0110B03E0110C33E01100D080010E0
:100EF0000D3E0110203E01109C6601101A3F0110AA
:100F0000793F0110883F0110E43F0110FA3F0110C2
:100F10006B4001107B400110E43D01104D070010B3
:100F200005410110FE3D011071070010A74101109D
:100F3000EE410110F9410110584201100C900110CE
:100F400071420110E44201100000084070B50546EE
:100F5000042000F059FA124C064606F049FE4FF400
:100F60002470266000F050FA0E4A2168064601F00F
:100F700027FF0D4B0D491E60284603F005FD0C4B65
:100F80000C491868002204F0A5FA0B4B00281880C1
:100F900003DBFFF78DFE002070BD4FF0FF3070BD0A
:100FA000089001100010091004900110243D011058
:100FB00008910110F642011018800110F0B58BB0B5
:100FC00006460AA801254FF0FF3300F8055D0F46DD
:100FD0001446099303F0ACF900281EDB104B1148AE
:100FE000B3F9002074B109AB0021049304230691E6
:100FF00005910391029701930096006804F05DFA51
:1010000009980AE00423049403940297019300963C
:101010002946006804F051FA20460BB0F0BD00BF2D
:1010200018800110089101102DE9F04FDFF8C480FD
:101030002B4D8DB0002402274FF0B10B41230B91B3
:101040000193414664234FF4803209940894CDF80B
:101050001CB006940597049403970294009482466A
:1010600003F041FF8146286806F02CFE01221D494D
:101070001D48FFF7A3FFC9F58036F60809F1805136
:1010800032460A9001F50021286806F0E0FD174B72
:1010900005460121186804F0DDFAC82306934FF4D1
:1010A000A0730493124A0B9B0293ED0041238DE839
:1010B0000C0041466423324609940895CDF81CB0D3
:1010C00005970397504603F00EFF09EB05024146D2
:1010D000504603F0C6FB0A980DB0BDE8F08F00BF84
:1010E000089001100010091000000910089101106B
:1010F00043435132000008100121FFF795BF000063
:1011000030B58FB00024129D0B930C236B435B080A
:101110000A930A235A43C823059342230493029354
:1011200052089DF84C300792822501934FF4A0722B
:1011300041230891039200930D940C940995069510
:10114000034B6422214603F072FD20460FB030BDF0
:101150004343423208B5000244F62063B0FBF3F08B
:10116000C0B107EE900AF8EEE77A17EE900A0AF09F
:10117000A5FF10F0BDFE0022074B0AF0F3FF0BF0B5
:1011800003FAFF2803D8002808BF012000E0FF2051
:10119000C0B208BD012008BD0000494030B5284C50
:1011A000002285B01146206801F043FF002841D09D
:1011B0000388072B9FBF216803F1FF32142303FB31
:1011C0000213428898BFD3F8F0508388A3EB020340
:1011D0000289C088A2EB000000FB03F088BF6FF01B
:1011E0007F45FFF7B7FF01A9044603AB02AA2846D3
:1011F00002F0C6FE039911B16143090A0131029B55
:10120000039113B163431B0A01330198029310B198
:101210006043000A013004AA01908DF8010002F831
:101220000D1D0DF101000DF102018DF8023005F0E8
:1012300031F903E0039003A805F040F905B030BD93
:10124000049001102DE9F04F91B093469DF868206D
:101250000F9206468A461D46002B4FD002240023DB
:101260004FF0B2094FF041080D930C930A93089385
:101270000693049302938DE80801CDF82C90642323
:1012800009940794059403944FF490321D4928461D
:1012900003F029FE3268B168074600F18050A24091
:1012A00000F500200BF0E0FE3368CDF82C90A34051
:1012B0005B080C93C82306934FF4A07304930F9B11
:1012C0000293114B0093CDF828B00994CDF820A0DB
:1012D000079405940394CDF8048064234FF490326E
:1012E0000849284603F0FFFD3268064907EB8202F1
:1012F000284611B0BDE8F04F03F0B3BA11B0BDE815
:10130000F08F00BF00000810424C54312DE9F04727
:1013100096B0002480469A46402010230E46039340
:101320009146029400F072F82546011D00F1440335
:1013300021F8025C21F8045C043199424FF000046A
:10134000F6D1337804905A1E062A48D8294F3A68B5
:101350002AB9294806F0D4F96FF0010441E0274D7D
:10136000BAF80020B9F800100093ADF8341002ABC1
:10137000ADF8362039460DAA286804F0C9FF317847
:10138000286804F092FCD8F80030C361054602AA30
:1013900039460DA804F0ADFA21460DA804F022FB51
:1013A00004220323A8611146009302A81E9BFFF7A5
:1013B00049FF3278124905A80BF054FF2B46202232
:1013C0008121009405A805F06DFFFFF789FB0D480A
:1013D00006F096F901211E9800F01CFB01E04FF089
:1013E000FF34049808B100F015F8204616B0BDE8A7
:1013F000F08700BFB8900110743E011004900110F6
:10140000683E01108D3E01100BF034BB0BF032BB77
:101410000BF038BB0BF036BB00207047FEE7000036
:10142000012884B046D880B9234B24481A6800921A
:10143000009AD2011AD5009AD24342F080720192EA
:10144000019A02601A680092F2E71D4B1D481A6863
:101450000092009AD2041BD5009AD24342F48052E3
:101460000192019A02601A680092F2E7164A11602E
:101470001A6812490292029AD0011BD4029AD243EE
:1014800022F080720392039A0A601A680292F2E7CD
:101490000E4A11601A680B490292029AD20409D4CA
:1014A000029AD24322F480520392039A0A601A6885
:1014B0000292F2E704B07047543105400431054010
:1014C00050310540003105400434044008330440E5
:1014D000014B0020187070474C900110034A012303
:1014E0001370034A00201370704700BF4C90011026
:1014F0001490011010B5144A037819B113491370F0
:1015000000200860127851B20029A8BFD3B2104A57
:101510000020082B107013D80E4C54F823407CB1D7
:1015200013700D4A81424FF00103A8BF07481370A2
:101530000A4A0B49A8BF006813700860002010BD5C
:101540004FF0FF3010BD00BF20800110209001102F
:1015500024900110289001104C900110149001105B
:101560001090011038B50C4611461546FFF7C2FF22
:1015700000280FDB15B1084B22681A60074B93F95E
:101580000030002BA8BF044A054BACBF126822688C
:101590001A60002038BD00BF20900110208001108B
:1015A00010900110054B064A186804331B68184454
:1015B000044B1B68034410681844704700500440F3
:1015C0000C5004400850044070B5D2B01549164E76
:1015D00012A80BF0FBFF002556F825405CB12A4607
:1015E0002368124902A80BF03DFE02A912A80BF0D5
:1015F0005FFE0135F0E712AA214601940094012311
:101600000B4805F079FD0123214601940094094A15
:10161000094805F071FD22460849074805F044FDD8
:1016200052B070BD0C480110289001104B480110B9
:101630005548011065480110A2480110159001108D
:1016400038B5074D002455F8240038B190E80C0057
:101650002146044806F054F80134F4E738BD00BFD1
:1016600028900110A848011010B50B4A86B0044616
:1016700010689288049004ABADF8142044B10021A6
:1016800000930291019106238222204603F0CFFAB3
:10169000002006B010BD00BFFC46011007B530B1F8
:1016A000002101910091044BA12203F0C0FA002017
:1016B00003B05DF804FB00BFB448011030B50388E7
:1016C000112B85B00C4612DC002599B10B4903950E
:1016D00001EBC302029552680192A12251F8333006
:1016E00000922946204603F0A2FA284603E04FF074
:1016F000FF3000E0084605B030BD00BFD8510110F2
:10170000044B187828B9044B1B78002B14BF022017
:1017100000207047149001101C90011038B5044649
:101720000C20FFF771FE0546FEF7A3FF0F4B104993
:101730001D6020460F4C03F027F900220E49206857
:1017400003F0C8FE0D4B0E4918800022206803F0FC
:10175000C1FE0C4B0C4918800022206803F0BAFE31
:101760000A4B1880FFF730FF002038BD1890011099
:101770000447011008910110BC4801101E8001109F
:10178000C04801101A800110C84801101C800110C7
:10179000064B09B1186207E053F821200AB1013164
:1017A000FAE7024B43F8210000207047289001100F
:1017B00010B50B4B88B0B3F900200090002104460F
:1017C00007AB08480293049103910191012300683B
:1017D00003F073FE044B07981C7008B010BD00BFE7
:1017E0001E800110089101100E9001107FB5084B6A
:1017F0000848B3F9002005A9002300910293019342
:101800001946006803F059FE059807B05DF804FB1F
:101810001C800110089101107FB5094B0948B3F9EC
:10182000002005A900230091029301931946006846
:1018300003F043FE9DF8140007B05DF804FB00BF01
:101840001A8001100891011010B50E4C0E480022AC
:10185000214605F029FC0D4B22781A700C4A002312
:10186000D9B2013352F82140002CF9D1094B074A73
:101870001868FEF74FFF21460448BDE81040FFF707
:1018800039BE00BF0F90011055480110249001107F
:10189000289001101890011008B5FFF709FA00F020
:1018A0002DFF02F061FE06F0E5FA00F053FCBDE802
:1018B0000840FFF789BE000008B505F0B1FE074BF0
:1018C0001868FEF78FFF064B187005F007FD18B17A
:1018D000BDE80840FFF7E0BF08BD00BF1890011049
:1018E0001C9001102DE9F843FFF7AEFF0027DFF849
:1018F000E890324EDFF8E4803C46D9F8000002F070
:1019000039FF0546FFF7D8FF042C06D8DFE804F0BE
:101910000814262C34003378B3B903242F46ECE79F
:10192000274B1A78274B53F822309B68984700289A
:10193000B4BF03240124F1E7234B1B78002BEAD02A
:10194000FFF754FF0224E9E71D4B1A781D4B53F8AB
:101950002230DB689847002821DADEE71A4B1B7833
:10196000002B08BF0024D9E7184A002333701370F6
:101970000424FFF73BFFD1E7337813B1FFF7AEFD47
:101980000BE01DB1124B1B78002BC7D1FF230021A8
:10199000104888F80030FFF7ADFD0024BEE7002FA7
:1019A000BCD0002DBAD105F0C3F9FF232946094860
:1019B00088F800302C46FFF79DFDAFE74C900110F2
:1019C00024900110289001101C9001101490011017
:1019D000E89201100F900110049101102080011075
:1019E00010B5FFF719FF044608B1FFF7FFFE2046C8
:1019F00010BD000008B5054B186806F063F9044BEC
:101A00001878BDE80840FFF7D3BE00BF089001106A
:101A10000E9001101FB548B10023029304230191D9
:101A200000936422034B182103F001F905B05DF81F
:101A300004FB00BF45565431034B4FF48022C3F8DA
:101A400080200020704700BF00E100E0C269006A0A
:101A5000101A7047F0B5002403462546944217D06B
:101A6000D8691E6A801B00280EDD58691E69471C54
:101A70005F61305C0855186A5E6901301862D86889
:101A8000864203D15D6101E0224601E00134E5E7D1
:101A90001046F0BD38B53A4B00221A708268536880
:101AA00003F0F803982B04465DD00CD8802B19D096
:101AB00004D8602B57D0702B55D058E0882B52D0CB
:101AC000902B0FD053E0B82B24D004D8A02B4AD0B1
:101AD000A82B1FD04BE0C82B3CD0F82B43D0C02BF9
:101AE00045D137E09368216AE269511AE268521AD7
:101AF000002ADBB228DDA2692169501CA0618B5449
:101B0000E369A2690133E361E3689A421CD10023CF
:101B1000A36119E0237923B1637913B100239360A2
:101B20002BE0256B35B9636B616AA06A9847206327
:101B300000B3E562E36AA26A591CE162D25C236BDE
:101B4000013B2363A3689A60A36804221A600822F9
:101B50009A6138BDA37933B10023E36223636361E3
:101B6000A361E361236204231360082300E02C23B4
:101B7000936138BDA368986001232371E4E700BF37
:101B80004D900110014B1868FFF784BF5090011071
:101B9000836838229A6144221A60704710B5002386
:101BA0000446F0220321012004F032FE0423F02237
:101BB0000121022004F02CFE0423F0220121022046
:101BC00004F026FE0023F0220421012004F020FE70
:101BD0000423F0220021022004F01AFE064B00210B
:101BE000C3F81812054B21714FF4802220461A6069
:101BF000FFF7CEFF084610BD0010104000E100E0E6
:101C0000816808B50B685B0702D4FFF7C1FF0BE0E2
:101C10004B68F82B08D1054A1378322B85BF6C230B
:101C20008B61013300231370002008BD4D9001101B
:101C300013B58DF8051002A9002401F8044D806841
:101C40008DF8074004F0B8FD204602B010BD00003A
:101C50002DE9F84320269946144B03600446C660DC
:101C600030460F469046FFF7D1FB002520616561A5
:101C7000A561E561256266623046FFF7C7FB012377
:101C80006371A062C4F834903846E5622563A760AA
:101C9000A571074904F04EFD41462046FFF7C8FFF5
:101CA000044B83F817532046BDE8F88370520110A7
:101CB000A086010000E100E08171427170470000E0
:101CC00038B505463820FFF79FFB2B4654220349C1
:101CD0000446FFF7BDFF024B1C6038BD00100A40F0
:101CE00050900110F0B58BB00023384A0993099B3E
:101CF000934203D8099B01330993F8E7344C05F06C
:101D00009DFC06F039F92068FFF720F900F04AFD44
:101D10002068FFF703FD00212E48FFF739FD00F092
:101D200019FA00212C48FFF733FD01212B48FFF75A
:101D30002FFD002419252646274600970DF11E0386
:101D400007AA0DF11A01264805F0AEF900280BDBB1
:101D5000BDF81A30022B07D1BDF81C3023B9BDF8ED
:101D60001E30132B08BF0136002208A91D4805F0BC
:101D70009BF9002804DB1C4908980BF0BDFA30B130
:101D8000013DDAD106B124B904F0F6FF01E00134D7
:101D9000F6E7132300240493022303930193009393
:101DA00005940294114A0E48012105F0A5F90E4B45
:101DB00000930E4A0194A12301210A4805F09CF9E1
:101DC000FFF790FD20460BB0F0BD00BF9F25260019
:101DD0000491011024800110388001104880011006
:101DE0009C520110A2520110B44801109C660110CF
:101DF00013B502AC012304F8013D204602F098FA25
:101E00000B4B186803F086FF0A4B186805F05AFF61
:101E10000020FFF7CDFC00F0D9FC036801229B688D
:101E2000214698470028F6D1034B187002B010BD28
:101E30000490011008900110549001102DE9F3470F
:101E400000F0C4FC494DDFF82C91DFF82C810446EA
:101E50000A262F78012F07D002D3022F18D07AE05C
:101E6000FF2388F8003074E023683A469B6869468F
:101E700020469847002870D09DF8002098F8003040
:101E800088F8002042EA0323A9F80030022363E027
:101E9000B9F80030FF2B26D123682046DB6898472D
:101EA00003285ADD23683A469B6801A920469847D3
:101EB00023683A4602AF9B680DF106014FF0000A15
:101EC0002046984707F805AD01A9384605F016FFEA
:101ED00001230DF1060138468DF8033005F00EFFA1
:101EE00085F800A039E0FE2B0AD1236801229B6807
:101EF00069462046984780B3684602F013F92AE005
:101F0000FD2B26D123682046DB689847022824DD74
:101F1000236801220DEB02019B6820469847236845
:101F200001229B680DF10201204698472368012297
:101F30009B680DF10301204698470DF103020DF156
:101F400002010DF1010004F0A5FA094B01221A70FB
:101F500001E0012300E000232B70013E16F0FF0694
:101F60007FF477AF02B0BDE8F08700BF5490011056
:101F70005C900110348001105590011030B5244C54
:101F800087B0206801F01CFF00280BDA214B1B787A
:101F9000002B3AD0204B214819684A1C1A6005F0E2
:101FA000AFFB32E01E4B1A78062A1D4601D0FFF720
:101FB00045FF05AB009304AA03AB02A9206801F01A
:101FC000B6F8012301931748059B0093049A039BDD
:101FD00002990068FFF794F800F0F8FB03681B69AA
:101FE0009847114B1B780BB9FFF7D8F80F4C2368B3
:101FF000287819688A88CB8892B29BB29A4204D119
:102000000628F7D0FFF71AFFF1E7002007B030BD30
:10201000049001101590011058900110A952011060
:10202000A8900110049101105C900110089001101B
:10203000094B4FF4FA725A604FF448729A604FF0AD
:1020400000421A60054B4FF42F7159604FF46171D3
:1020500099601A60704700BF609001106C90011089
:102060004368B3F1004F37B504460D461BD0CA1A7A
:10207000C1680369694303FB021302684FF47A7174
:1020800093FBF1F313448B4201DD016003E0002B6D
:10209000B8BF00230360204602A950F8083B21F88E
:1020A000023D05F02BFE656003B030BD30B51E4D1E
:1020B00087B0286801F084FE00221146286800F0ED
:1020C000B8FFC0B1C38804894288E41A022194FB96
:1020D000F1F41C44838815489B1A93FBF1F11144D9
:1020E000A4B289B2C1F1A001643CFFF7B9FF214657
:1020F0000F48FFF7B5FF05AB009304AA03AB02A995
:10210000286801F014F8012301930A48059B009305
:10211000049A039B02990068FEF7F2FFFFF73EF86E
:10212000002007B030BD00BF04900110789001106E
:102130008C9001100491011007B502A94FF4FA73B5
:1021400040F8083B21F8023D05F0D8FD03B05DF8EA
:1021500004FB00002DE9FF41DFF8C080264F274A2D
:10216000274E284D00244FF4AF738DE818008021CE
:102170000423404604F0C0FF4FF41673009301940B
:102180000423214A8021384604F0B6FF4FF4FA7345
:102190000093019404231D4A8021304604F0ACFFD3
:1021A0004FF42F73009301940423194A8021284689
:1021B00004F0A2FF224602A9404604F075FF224621
:1021C00003A9384604F070FF124B029ADA60039AB2
:1021D0001A6102A92246304604F066FF224603A98E
:1021E000284604F061FF0C4B029ADA60039A1A61E8
:1021F00004B0BDE8F08100BF6D530110F052011032
:10220000B3530110F85301103553011078530110E6
:10221000BF530110789001108C9001102A530110C7
:1022200007B502A8012300F8013D02F081F8FFF78D
:1022300091FF0B48FFF780FF0A48FFF77DFF0A4B2D
:102240001B680BB1FEF74CFC084B186805F03AFD13
:102250000020FFF7ADFA002003B05DF804FB00BFDB
:10226000789001108C900110B89001100890011026
:102270000C4B002119724FF448714FF4FA72196136
:102280004FF000411A60DA605960074B1A60012272
:102290001A724FF42F72DA604FF461721A6159604A
:1022A000704700BF789001108C900110002070479B
:1022B0002DE9F0414C4B4D4C196801298EB02CD1C1
:1022C0004FF47A430893B1230793494A02900223BB
:1022D00000264FF0C80805934FF4A07703934123DD
:1022E0008DE80C004349099664234FF49032CDF8F1
:1022F00018800497206802F0F6FD0546C0F590317D
:1023000000F1805021228DE8C001334600F5002005
:1023100002F062F805F57A4243E0A1F16403632B11
:102320004FF0000542D84FF47A430893B123079346
:1023300002230593039341234FF00A0C0193642376
:10234000029091FBF3F291FBFCF003FB12120CFBE9
:10235000101130310906B2FBFCF202F1300E41F4EB
:10236000B04242F0450242EA0E42C8274FF4A0763E
:102370000092204909954FF4903206970496206800
:1023800002F0B1FD8046C0F5903100F1805021226D
:102390008DE8E0002B4600F5002002F01DF808F55E
:1023A0007A421449206802F05CFA1AE021238DF881
:1023B0002F304FF4A073ADF83430C823ADF8363069
:1023C000236801930DF1360300930DF132020DAB3A
:1023D0000CA90DF12F00ADF83050ADF8325002F0DD
:1023E000B7F80EB0BDE8F081109001100491011013
:1023F000434D56320000081010B586B006AC0023DD
:1024000044F8043D204604F059F8124B1B68DBB930
:10241000ADF80E30ADF810304FF4A073ADF81230B7
:10242000C823ADF814300C4B21221B688DF80D2009
:10243000019300940DF1120304AA0DF10E010DF1A8
:102440000D0002F085F802E00120FFF731FF0020C7
:1024500006B010BD10900110049101106E4B37B5FD
:102460001D682B6804469B6801220DF10301284674
:10247000984708B90020CDE09DF8031009B96749D5
:1024800002E0082904D1664920460BF09FF84AE093
:102490001029F8D050292FD1624B0022114618681C
:1024A00000F0C7FD014608B1013001D1072270E0FC
:1024B0008B884A88C8889D1A0B89181A0B88238034
:1024C0004B8840F2333203EB550353439B0AA3700E
:1024D0008B7960716A4303EB5003920AE3702271B7
:1024E0000B88072B40F295804A895B2312FB03F38C
:1024F0004D4ADB1113708CE0602902D14A4B1B78E6
:1025000081E0A1F15103062B2BD8464B503989B2FB
:102510000DF10602186800F08CFD014628B905226D
:1025200020460AF03BFE052074E0421CF7D0838869
:1025300042889D1A0389C088181ABDF80630237096
:102540004B8840F2333203EB550353439B0A6370CD
:102550008B7920716A4303EB5003920AA370E270F7
:10256000E1E7582939D12B6802229B6801A9284646
:10257000984701287FF77EAF2A4BBDF804101868F2
:102580000DF1060200F055FD014608B1431C04D1CF
:10259000062220460AF002FE3BE0838842889D1A0C
:1025A0000389C088181ABDF8063023704B8840F2A2
:1025B000333203EB550353439B0A63708B792071CD
:1025C0006A4303EB5003920AA370E2704A895B23CB
:1025D00012FB03F3DB1163711BE0422916D1114B8F
:1025E00000221146186800F024FD431E03339FBFEC
:1025F000428883889B1A02EB53039BBF40F233321D
:10260000534300239B0A2370012003E00120207024
:1026100000E0062003B030BDA49001105954011011
:102620005E54011004900110A090011010B5074CE9
:102630002478062C0A4602D1FFF710FF10BD044B88
:102640000146186800F096FC10BD00BFA89001106C
:1026500004900110062838B5054640D8214C206862
:1026600010B103685B6898471F4B1D70013D052D35
:1026700029D8DFE805F003080E11141C1B4B18685D
:102680002060002123E01A4B1868206001220021FD
:1026900016E0184B1B6808E0174D012101E0164DAC
:1026A00000212868FDF7ECFE2B68236011E0104D37
:1026B000012128682060FFF7BBFA28680022012169
:1026C000FFF7FAFA05E0094B18682060012100F0D5
:1026D0004FF9206803681B689847002038BD4FF009
:1026E000FF3038BDA4900110A8900110AC900110EB
:1026F00050900110B090011000900110F0B5214DE4
:10270000214F224A224E85B0002421460194009494
:102710000123284604F0F0FC542300930194012384
:102720001C4A1021384604F0E7FC4FF4964300930E
:10273000214604230194184A304604F0DDFC224669
:102740000DF10B01384604F0AFFC144B9DF80B1053
:102750001868FFF76DFA224603A9304604F0A4FC7E
:102760000F4B0399186800F00FFB22460DF10A0188
:10277000284604F099FC9DF80A00FFF76BFF05B0AE
:10278000F0BD00BF2B5501108E5501106354011090
:10279000F3550110395501109A5501105090011050
:1027A000B090011010B5084C2046FFF789FA20467A
:1027B00000F040F9204600F0F1FAFDF763FEFFF764
:1027C0009DFF002010BD00BF9D230010014B186825
:1027D000704700BFA490011042698069101A7047C9
:1027E000044B0020C3F81802034B4FF40002C3F857
:1027F000802070470010104000E100E0F0B5002498
:102800000346A646944217D09D695869401B00288C
:102810000DDDDE689F680135701C37F816609D611C
:102820005D68D860A84204D1C3F80CE001E02246FC
:1028300002E00E550134E5E71046F0BD0D4B0E48A1
:102840004FF48042C3F814229622016811F0040F5D
:1028500009490BD1013AF8D1C3F8142210220868B3
:10286000400703D4013AFAD1012070470020C3F891
:10287000140270470010104014610F4073B50546F4
:1028800090F83D00D0B1002204210D480D4E04F017
:1028900020F801A804F038FA2846FFF7CFFF0446D5
:1028A00028B9019804F036FAB042F5D900E00124C5
:1028B00003480122042104F00CF8204602B070BD48
:1028C00000500C4020A1070038B50F4B04240546EA
:1028D0009C63F02205230321012003F099FF214688
:1028E0000523F022012003F093FF01231321184652
:1028F000F02203F08DFF054B4FF400021A602846CA
:10290000FFF7BCFF002038BD0010104000E100E0E0
:1029100038B590F83D30044623B3426B836B9A423E
:1029200016D090F830507DB990F83C300133DBB2CE
:10293000052B80F83C3013D1FFF7A0FF0A4804F0C4
:10294000DFFE84F83C500BE0002380F83C3007E0C9
:10295000064B4FF48042C3F814220022C3F814221D
:10296000636BA363002038BD205601100010104097
:1029700080F83D10044B21B14FF48042C3F8182277
:102980007047C3F81812704700101040F0B5244B80
:1029900003601026044689B0466020200F46FEF7EB
:1029A00035FD0025A060E56025616561A561E661F2
:1029B0002020FEF72BFD1B4B07930F23206265623F
:1029C000A5620293E762042302A9174803950495C0
:1029D0000695059303F026FF134A08259368019393
:1029E000013DFBD10121104803F06AFF04210E488C
:1029F00003F079FF012204210B4803F06AFF0B4B1F
:102A000083F817530A4B84F8305020466563A5635A
:102A100084F83C5084F83D50C3F8185209B0F0BD1A
:102A20000C56011000CB280C00500C4000E100E0D7
:102A30000010104038B505464020FEF7E5FC294659
:102A40000446FFF7A3FF014B1C6038BDAC9001109A
:102A500070B5C56804460E4645B90168036940680B
:102A6000490098474008E06058B1A560A3686268D3
:102A7000591C32F81330A1603380E368013BE360F6
:102A8000012070BD0269436970B50468D31AE31A66
:102A9000002B0CDDC56846686B1C0132A342C36085
:102AA00026F81510026104D10023C36001E0002064
:102AB00070BD012070BD0000F7B590F83D202A4B95
:102AC000054682B3294A4FF48041C2F8141200210E
:102AD000C2F8141204229E681A621C4600F11C07F8
:102AE000E36813F002030BD00DF106013846FFF73F
:102AF000AFFF08B9ADF80600BDF80630A360EFE7F8
:102B000006F47F42B2F5B44F06D0B2F5B64F04D109
:102B1000B1B2281DFFF7B6FF012385F830306B6B8B
:102B200001336B631DE004229E681A621C4600F1AB
:102B30001C07E3689B070BD50DF106013846FFF72C
:102B400087FF08B9ADF80600BDF80630A360F0E7CE
:102B500006F47F43B3F5B64F03D1B1B2281DFFF79A
:102B600091FF03B0F0BD00BF00500C4000101040BA
:102B7000014B1868FFF7A0BFAC9001108269C069D3
:102B8000101A704790F8343013B94268136013601C
:102B900000207047F0B5002403462546944217D024
:102BA0009869DE69801B00280EDD1869DE68471C05
:102BB0001F61305C0855D8691E690130D86198687A
:102BC000864203D11D6101E0224601E00134E5E7C0
:102BD0001046F0BD08B5F02201230021022003F0C9
:102BE00017FE01231946F022022003F011FE0023F4
:102BF000F0220321012003F00BFE0023F022042128
:102C0000012003F005FE034B4FF080721A60002094
:102C100008BD00BF00E100E008B5F0220423002158
:102C2000022003F0F5FD0423F0220121022003F02D
:102C3000EFFD034B4FF08072C3F88020002008BDE9
:102C400000E100E0F7B504460020626884F8340033
:102C5000936803F00E03042B16D11368E169A2698F
:102C6000511AA268521A8242DBB22FDD6269E16812
:102C7000551C65618B54A36962690133A361A36824
:102C80009A4223D1606121E00C2B02D11368019399
:102C90001CE0022B1AD110250127E66A36B9236BF6
:102CA000216A606A9847E06260B1A662A36A626ABC
:102CB000591CA162D25CE36A84F83470013BE36280
:102CC00063681A60013D15F0FF05E6D103B0F0BD61
:102CD000014B1868FFF7B6BFB09001102DE9FF4116
:102CE0002026264B036004468660304690460F46F9
:102CF000FEF78CFB0025E060266225616561A56119
:102D0000E5613046FEF782FB4FF4964301930323BF
:102D100060628DF8093001A9194BC4F8308038463B
:102D2000A562E562676084F83450039301268DF84C
:102D300008508DF80A5003F095FE694660688DF8DA
:102D400002508DF803508DF800608DF8016003F09B
:102D50005BFF3146606803F075FF324629466068C4
:102D600003F034FF60683246314603F02FFF054B15
:102D7000204683F8185304B0BDE8F08130560110A6
:102D800000CB280C00E100E008B5034A406803F0DE
:102D9000CBFD002008BD00BF00CB280C38B5054690
:102DA0003820FEF731FB2A4603490446FFF796FF19
:102DB000024B1C6038BD00BF00100840B0900110ED
:102DC0002DE9F04188461146044603F011F804F558
:102DD000D27604F51A77354630461C3606F0CEFB1F
:102DE000BE42F9D11423C4F88032A4F87A32072302
:102DF00000266422A4F88432082384F87662A4F8BA
:102E00007822C4F88C62C4F8A081A4F8863284F8D1
:102E100088624FF47A70FEF7F9FAA4F86C62C4F88D
:102E20006802A4F87C62A4F87E6228461C3506F08D
:102E30002FFCAF42F9D12046BDE8F0816429C0F8EB
:102E4000803288BF64219DF80030A0F87812A0F885
:102E50007A2280F888320020704713B59DF8004030
:102E600061F302048DF80040BDF8004062F3CB042A
:102E7000BDF80220ADF8004063F30902ADF802206E
:102E8000BDF810201344BDF80420013963F3090292
:102E90001C2303FB010000F5D2706946ADF8042045
:102EA00006F048FC02B010BD112A2DE9F0415BD9B3
:102EB00090F87632002B57D1B0F87E42B0F87422E9
:102EC000944254D2D0F87C322BB94AF6552321F8DB
:102ED000023B092400E008244AF656230B80B0F890
:102EE0007E32D0F870724FF00C0E0EFB03F337F801
:102EF00003C0A1F804C0B0F87E520EFB0575AB8884
:102F00006A889A1A92B24A81B0F87E520EFB057511
:102F10002B89ED885B1B9BB28B81B0F87E520EFB38
:102F200005756E8806EB5206B6B2CE80B0F87E52BA
:102F30000EFB05751A44ED8805EB5305ADB20D8106
:102F4000B0F87E820EFB087762447F89CF813A44D5
:102F5000B31815FA83F34B80B0F87E320133A0F832
:102F60007E326000BDE8F0810020BDE8F0811846A7
:102F7000BDE8F0810F2A2DE9F04105460C4655D9F0
:102F8000B0F87C32B0F86C62B34206D390F8887225
:102F90001FB1BDE8F041FFF787BF95F87602002822
:102FA00044D1B34243D22BB94AF6552224F8022B1E
:102FB000082000E00720D5F868624AF6552203EBA6
:102FC0008303228036F81380A4F80480023359006A
:102FD000A1F1020C36F8133036F80C70DF1B01F14A
:102FE000020EBFB2314467818B8836F80E10591A31
:102FF00089B2A1817A1808EB020336F80C2002EBA3
:103000005707BFB2E78017FA83F236F80E3003EBAA
:1030100051039BB2238113FA82F36380B5F87C32AB
:103020000133A5F87C324000BDE8F0810020BDE806
:10303000F08190F876322DE9F041002B72D1002911
:103040003BD10AB101231380D0F88C32002B6BD115
:10305000B0F86C721D464FF00A0EBD4211DAD0F87E
:1030600068220EFB052201359188568814898E1B33
:10307000D188611A71438B423CBFC0F88C220B4649
:10308000EBE7B0F8747200254FF00C0EBD4211DA78
:10309000D0F870220EFB05220135918856881489DC
:1030A0008E1BD188611A71438B423CBFC0F88C22C1
:1030B0000B46EBE7D0F88C3236E0072917D8B0F88A
:1030C0006CE21E461C464FF00A0C744527DA0CFBD6
:1030D00004F5D0F8687207EB05087D5B8D4204D1DA
:1030E0000136002B08BF4346B6B20134EDE7B0F815
:1030F00074E21E461C464FF00C0C74450FDA0CFBB4
:1031000004F5D0F8707207EB05087D5B8D4204D1A1
:103110000136002B08BF4346B6B20134EDE71AB1C1
:10312000168001E04FF0FF331846BDE8F08110B57E
:10313000D0F868420C60B0F86C121160D0F87022C0
:103140001A60029BB0F874221A6010BD002070B59E
:103150000346044604EB84069442B6B218D001EB51
:10316000460531F816602EB90130002B08BF2B46FA
:1031700080B20AE04BB11E806E885E80AE889E8071
:10318000EE88DE802D891D810A330134A4B2E1E787
:1031900070BD2DE9F04F02EB820285B093B20020A2
:1031A000019302468146019B934242D031F812308E
:1031B00001EB4204002B36D0A3886688B4F806E001
:1031C000B4F808C00293531D019D9BB29D422AD0C2
:1031D00031F813704FEA430B01EB0B050FB36F8807
:1031E000B5F804A0B5F806802D890395BE420CD829
:1031F000029D55451AD3C64505D8039DAC4502D35B
:1032000021F80B900BE0BE420BD3029D554508D828
:10321000C64506D3039DAC4503D8A4F80090013001
:1032200080B20533D0E7053292B2BCE7BE42F8D394
:10323000EEE705B0BDE8F08F2DE9F04F89B002EB65
:103240008202029093B2002003930090039B009AA5
:10325000934200F08F8031F812405300002C7ED052
:103260009C1C0D1931F804E004951C1D0D1931F852
:1032700004C005959C1D0D19083306950C5B31F8AB
:103280000380CD180795134605339BB20193019D2A
:10329000039BAB4263D02B464FEA450931F813300C
:1032A00001EB0905002B58D06E88AF88EB882D897B
:1032B000B64511D3029AB2F884B2C7EB0E0ADA45CA
:1032C0000ADC9C4201D8984503D2AC4204D8A845F8
:1032D00002D3049B1E803AE0BC4511D8029AB2F892
:1032E00084B2CCEB060ADA450ADC9C423CD898450D
:1032F00003D2AC4204D8A84539D3059B1F8026E0F1
:103300009C4211D3029AB2F884B2C5EB040ADA45A2
:103310000ADCB64501D8B44503D2BE4504D8BC4545
:1033200002D3069A138012E0A84516D8029AB2F882
:1033300084A2C8EB030353450FDCB64501D8B4455E
:1033400003D2BE4509D8BC4507D3079B1D804FF06B
:103350000003013021F8093080B2019B94E7009A04
:10336000053293B2009371E7AC42CBD8C3E79C42DD
:10337000DCD3C7E709B0BDE8F08F2DE9F04FB2F814
:1033800004A088884B88B2F80280B1F806900989B9
:1033900085B09DB200901FFA8AF00290D08801910A
:1033A00003901FFA88F10FFA85FB0FFA81FCBDF834
:1033B0000C401089BDF80060BDF80470E3451FFAA9
:1033C00089FE82B20FFA8EFC0FFA84FB1BDBDC4510
:1033D00003DC0FFA87FCDC450BDA0FFA8EFC0FFAE0
:1033E00082FBDC4508DC3FB25F4502DA24B2A4452B
:1033F00052DBCAEB03004DE02BB20FFA81FA5345C2
:1034000023B252DC5BE0DC454BDC3FB223B29F428F
:1034100008DA0FFA8EFC12B2944507DC974201DA03
:103420009C4521DB009BC3EB080033E09C451BDB84
:103430002BB20AB2934203DC33B20AB293420ADAE5
:10344000BDF908202BB2934208DC36B2964202DA6C
:1034500009B28B422CDBC0EB09001BE00FFA8EFE99
:1034600024B2A64534DC30E02BB20AB2934203DC2E
:1034700033B20AB293420ADABDF908302DB29D4246
:1034800026DC36B29E4202DA09B28D4220DB039B73
:10349000019A981A80B21DE02BB20AB29342EBDC7B
:1034A00010E012B29445C7DCBCE79C45E4DBC7E7FB
:1034B0000FFA8EFE24B2A6450ADC8E42E6E79C4552
:1034C000A3DDB9E7A742D3DBACE70AB29342CFDD75
:1034D00047F6FF7000B205B0BDE8F08F70B50E463C
:1034E00009880446154639B313882BB3994223D073
:1034F00090F88832022B04D194F88832022B07D13D
:103500000EE001F0070102F048FD012814D1F3E7B5
:103510002978204601F0070102F03FFD01280BD178
:103520002A4631462046FFF728FFB4F886329842F3
:10353000CCBF0020012070BD002070BD2BB1888859
:103540004B88C1189088538804E00889CB88C1183B
:103550001089D3880344022093FBF0F3C3EB61008E
:1035600080B2030444BF404280B200B27047000002
:10357000F7B5538890880F4618448B8849880B44C8
:103580005B10C3EB600007EE900AF8EEE77A164690
:1035900017EE900A08F092FDFB88044638890D4624
:1035A0001844F18833890B445B10C3EB600007EECD
:1035B000900AF8EEE77A17EE900A08F07FFD2246AF
:1035C0002B460EF015FC00220B4B08F0CBFD08A398
:1035D000D3E9002308F0F0FE08F0F6FF07EE900AAA
:1035E000FDEEE77ACDED017ABDF9040003B0F0BD40
:1035F000000000C0CA210940008066402DE9F04764
:1036000086B080469DF838A00D461646994600249F
:10361000B44201AF0CD00A2C0AD055F824205346EE
:1036200049464046FFF78AFF27F814000134EFE7C8
:10363000012039462B460246B24214D20A2A12D041
:10364000B1F800E031F8024FA64508D9586821F8D2
:10365000024C1C68A1F800E083E811000020013250
:1036600092B20433E8E70028E2D006B0BDE8F08764
:103670002DE9F04F0025B2F900A08DB0A8462E46E6
:103680004FF0640B56453FDA51F826004388848892
:10369000E41A0389C0881B1A63430BFB03F04FF441
:1036A000FA74B0FBF4F000904FF4C8705843B0FBCC
:1036B000FBF01844019000200746BE4217D051F895
:1036C00027E0BEF80240BEF80490C4EB0909BEF83A
:1036D0000840BEF806E0CEEB040404FB09FE009CA3
:1036E000744504D8019C744524BF013080B2013771
:1036F000BA45E2DC854226BF634628464FF0010802
:1037000001369C460546BDE7B8F1000F01D1A2F88D
:1037100000800023B2F900E01D4664274FF4FA78D8
:103720004FF4C879754501DB002022E0092BFBD856
:1037300051F82540A0886688B4F806A0861B208929
:10374000CAEB0000704307FB00F6B6FBF8F6B44581
:103750000DD309FB00F6B6FBF7F63044844506D8D6
:103760000CAE581C06EB830343F8284C83B201359A
:10377000D8E7984206DA02AC54F8204041F82040DD
:103780000130F6E713800DB0BDE8F08FF0B50023EF
:10379000B2F900608BB01D461846B0429CB217DAF1
:1037A0000A2B14D051F820704DF823700130B0422C
:1037B00001DB0133F1E751F82040B4F800E03C8828
:1037C0008EEA04046407F4D101300125EFE71C46BA
:1037D0004DB10023A34205DA5DF8230041F8230030
:1037E0000133F7E714800BB0F0BDF0B5D0F86842B4
:1037F000B0F86C620A270020B0420CDA07FB00F533
:103800000130635B23F0070E964502BF03F0070308
:103810000B436353F0E7F0BD2DE9F04FB0F86C3285
:10382000D0F868820A2699B0044606FB0386002772
:10383000B04538D208F10A0908F11405A5F10A02C9
:10384000B24201D3C846F3E741462046FFF746FEA1
:1038500038B339F80A3C35F80A2C072B0ED8072A5A
:1038600014D80137BFB2FA0092B2134329F80A3CC8
:1038700035F80A3C1A4325F80A2C12E0072A05D825
:1038800023F00703134325F80A3C0AE035F80A2C15
:10389000072A06D9072B9EBF22F00702134329F8F7
:1038A0000A3C0A35CAE7D4F868A2B24522D2D34608
:1038B0003BF80A5B072D1BD925F00705ADB2D946A9
:1038C000B14515D2B9F80080B8F1070F0DD928F02D
:1038D00007081FFA88F8454507D04A465146204652
:1038E000FFF7FCFD002840F06E8109F10A09E7E7C7
:1038F000DA46DAE7D4F86832D4F8705203F5777311
:103900000B930023A4F8743201220A9313B2BB4232
:10391000D4F8683200F339810B998D4280F03581FB
:1039200092B24FEAC20E06920021BDF82820ADF8EF
:1039300036201FFA8EFE0A46B34212D210B2092870
:103940000FDCB3F800C02CF0070CF44507D118A920
:1039500001EB8000013240F8283C92B201210A3389
:10396000EAE709B1ADF836200DF136020EA920467E
:10397000FFF77EFEBDF836300793BDF91CE0BEF1BF
:10398000010F40F3FE8000230493039302939A46B1
:1039900019461846CDF814E00DF1380B0FFA80FEE9
:1039A0005BF82390B9F80220089218AA02EB8E0E59
:1039B000089A5EF828ECB9F804C0BEF802E01FFAD5
:1039C00083F8964588BF4046B9F8062009920FFA59
:1039D0008AFE18AA02EB8E0E099A5EF828ECBEF851
:1039E00006E0964588BFC24618AA0FFA81FE02EB90
:1039F0008E0E01335EF828ECBEF804E0E64538BFD1
:103A00004146B9F808E0BDF9089002EB8909029A2D
:103A100059F8289CB9F80890F14538BF42460292FF
:103A2000089AC2EB0C0C039A62440392099AC2EB07
:103A30000E0E049A72440492059A0FFA83FE7245A0
:103A4000AADC18AA09B20FFA8AFE02EB810102EB86
:103A50008E0EBDF908205EF828EC51F8281CBEF83F
:103A600006C0898818AB0DF1600800B203EB800036
:103A700008EB820250F8283C52F8282C588812890A
:103A8000A980A5F806C04FF06408091ACCEB020C17
:103A900068802A8108FB01F1039A059892FBF0F0F7
:103AA00008FB0CFC91FBF0F1049A059892FBF0F8EE
:103AB0009CFBF8FC6145D5BF0023012100930091D8
:103AC000D8BF7346BDF81C2059462046FFF796FD27
:103AD0000DF1360259462046FFF758FEBDF9363043
:103AE000012BD8464DDD052BC4BF0523ADF836307C
:103AF000BDF8363000218E461AB208B290420ADA7A
:103B000058F82100008800F0070040EACE0E1FFAA6
:103B10008EFE0131F1E7013B9BB2002118B2002873
:103B200013DB0DF1600C0CEB8000013B50F828CC4E
:103B3000BCF8000000F0070040EAC101BDF8280011
:103B4000ACF8000089B29BB2E8E78E4508D218AB0A
:103B500003EB8202A5F800E052F82C2C0E9906E047
:103B600018AB03EB820329800E9A53F82C1C2046D5
:103B7000FFF7FEFCB4F87432688101330C35A4F809
:103B80007432069A013292B2C0E603F10A050027A8
:103B9000A5F10A039E421FD994F88832032B04D161
:103BA00035F80A3C072B0CD913E035F80A1C072915
:103BB0000FD8022B0DD0C9B2204602F0EEF9012831
:103BC00007D00A35E4E7424629462046FFF70DFEB6
:103BD0008BE625F80A7CF4E719B0BDE8F08F38B51C
:103BE00000F5D27400F51A75204605F0D5FC204684
:103BF0001C3405F016FDAC42F6D138BD2DE9F04F6E
:103C000089B000230746ADF81830ADF81E30ADF886
:103C10001A30ADF81C301C4603934FF0FF3906A94B
:103C2000D7F8A001059303F0EFFF059B0028F6D01D
:103C3000BDF818504FF6FD72954200F2AF80002B90
:103C4000EDDB5DBB7CB1BDF810100BF10102521A27
:103C50004B1E92B200929BB21FFA89F2E1B2384633
:103C6000FFF7FBF803460399039A052909F10109B7
:103C700002F1010205D0002403924FF6FF76A04620
:103C8000CDE705934D4B00241868012101F0E2FCBB
:103C90004FF6FF76A0460394059BC0E705F0070AA0
:103CA00014200AF1FF3100FB0171BDF81E20BDF99F
:103CB0001CE0D1F8E000002A08BF01224FEACE3E06
:103CC0009EFBF2FE864522DDD1F8E40086451EDA31
:103CD000BDF91AE0D1F8E8004FEACE3E9EFBF2FEB5
:103CE000864514DDD1F8EC108E4510DAD7F86C114A
:103CF0008A420CDBED10AAB20592BDF81420ADF893
:103D00001820AA1B052A42D8D04540D113E0002C28
:103D100085D0BDF810100BF10102521A4B1E92B261
:103D200000929BB21FFA89F2E1B23846FFF795F88C
:103D30000346002473E7B4B1A2452CD00126BDF898
:103D400010100BF10102521A4B1E92B200929BB25C
:103D50001FFA89F2E1B23846FFF77FF803464EB109
:103D60002E46D046E5E744460496B8F1000F12D13E
:103D70002E4654E7059B0222013B00929BB21FFA9C
:103D800089F251463846FFF768F80346E8E7002C09
:103D9000F0D00026D3E7AB462E4640E73846FFF783
:103DA0001EFFBDF818304FF6FE7083424FF0FF3013
:103DB00018BF002009B0BDE8F08F00BF04910110CA
:103DC0002DE9F74F0446FFF719FF002811DA04F533
:103DD000D27504F51A7628461C3505F059FCB54213
:103DE000F9D10023A4F86C32A4F874324FF0FF30FC
:103DF000B5E00025012684F87662C4F88C52A4F858
:103E00006C52A4F8745294F88832022B07D0F1B2A5
:103E1000204602F0C2F8431E5842584100E00120FB
:103E20001C23B4F86C82D4F8681203FB064308EB39
:103E3000880AD3F8983152464FF0000CE3B3B4F837
:103E40006CE2B4F87872BE4536D2B4F87A72BC45EA
:103E500032D2D3F820E018B1BEF1090F28DD03E01B
:103E6000D4F88072774523DCB3F804E0B3F81290FD
:103E7000CEF3C80E1FFA8EF7C9EB0707012F17DD27
:103E80009F8A019701EB4207B3F810B021F8126046
:103E9000A7F802B0BDF804B0A7F804B0A7F80690E0
:103EA000A7F808E0B4F86C720137A4F86C72053218
:103EB0001B680CF1010CC1E770B901EB4A07B4F8BB
:103EC0006C22C8EB020292B239462046FFF7B4F9E1
:103ED00010B10544ADB2F2E70136082E93D1B4F823
:103EE0006C22D4F868122046FFF753F994F8883210
:103EF000284485B283B3B4F86C22D4F868320A211E
:103F000001FB0233C4F870322046FFF785FC65B12F
:103F1000B4F86C22D4F868122046FFF717F9B4F809
:103F20006C32181AA4F86C0203E094F88832002B63
:103F3000EED10023A4F87C32A4F87E3284F87632E5
:103F400004F5D27504F51A7428461C3505F0A0FB5B
:103F5000AC42F9D1002002E0002DEAD0D8E703B04E
:103F6000BDE8F08FFF2928BFFF21FF2A28BFFF22CD
:103F7000FF2842EA012228BFFF2042EA00407047A2
:103F800010B5C4B21C60C0F30723C0F30740136030
:103F9000086010BD00B589B007AB06AA05A9FFF7F8
:103FA000EFFF059B069A934238BF1346079A934248
:103FB00038BF134607EE903AB8EE677ADFED167A0F
:103FC000C7EE876A07EE902AB8EE677A27EE267A60
:103FD000FCEEC77ACDED017ADDED067A9DF804207E
:103FE000B8EE677A27EE267AFCEEC77ACDED027A34
:103FF000DDED057A9DF80810F8EE677A67EEA67A8F
:10400000FCEEE77ACDED037A9DF80C0009B05DF87F
:1040100004EBFFF7A7BF00BF00007F43014B1878F8
:10402000704700BF5D800110014B1878704700BFDA
:104030005A800110014B1878704700BF5B80011057
:10404000014B1878704700BF5C800110014B187855
:10405000704700BFB490011038B5094D01212868A0
:1040600004F090F802210402286804F08BF8204341
:1040700004020521286804F085F8204338BD00BFFC
:10408000C890011038B5094D1621286804F07AF857
:1040900010210402286804F075F82043040200216E
:1040A000286804F06FF8204338BD00BFC8900110A5
:1040B00008B5034B0178186804F064F808BD00BF28
:1040C000C890011038B50568094CEAB2206805218E
:1040D00004F042F8C5F307222068022104F03CF8FE
:1040E0002068C5F30742012104F036F8002038BDEE
:1040F000C890011038B50568094CEAB22068002163
:1041000004F02AF8C5F307222068102104F024F8EF
:104110002068C5F30742162104F01EF8002038BDC0
:10412000C890011038B50B4D027804462421286848
:1041300004F012F822782868142A86BF143AD2B202
:104140000022252104F008F8034B22781A70002081
:1041500038BD00BFC89001105C8001102DE9F74305
:10416000134D0646884610220921286803F0F4FF03
:104170000024A146444510DA3719315D7A78286861
:1041800003F0EAFF315D286803F0FCFF7B7883428F
:1041900018BFCDF804900234ECE70022092128680A
:1041A00003F0DAFF0348FFF7BDFF03B0BDE8F0837B
:1041B000C89001105C8001102DE9F041274C0746A2
:1041C0001321206803F0DEFF03210546206803F079
:1041D000D9FF234A3B78117899420646904633D05E
:1041E00093B905F0F7021321206803F0B5FF06F03C
:1041F0007F020321206803F0AFFF40220E212068D8
:1042000003F0AAFF032214E0012B14D105F0F702FA
:104210001321206803F0A0FF66F07F02D2B20321D1
:10422000206803F099FF48220E21206803F094FFD4
:104230003322212105E0022B0CD145F00802D2B235
:104240001321206803F088FF3B7888F800300020B5
:10425000BDE8F0814FF0FF30BDE8F081C89001105B
:10426000B490011038B50A4C05469721206803F038
:1042700089FF2B781BB140F00A02D2B201E000F0B6
:10428000F5022068972103F067FF002038BD00BFCA
:10429000C890011008B5044B0A780178186803F03B
:1042A0005BFF002008BD00BFC890011070B5104E24
:1042B00005783378AB4219D00E4C5DB92A463821C7
:1042C000206803F049FFE1229621206803F044FFB3
:1042D00035700BE010223821206803F03DFFF122F9
:1042E0009621206803F038FF01233370002070BD51
:1042F0005A800110C890011038B50B4C057823780E
:10430000AB420FD0094B35B9A0221321186803F036
:1043100023FF257006E01868A522132103F01CFF77
:1043200001232370002038BD5B800110C89001106C
:1043300038B50A4D04782B78A3420AD014B91E214F
:10434000074803E0012C06D106481E21FFF706FFAF
:104350002C70002038BD4FF0FF3038BD5D8001105B
:10436000445601106256011038B50C4615490546F1
:1043700008F0C2FF20B92046BDE83840FFF7D2BEA2
:104380001149284608F0B8FF50B923781BB9FFF748
:1043900079FE0E4B18602046BDE83840FFF7ACBFF1
:1043A0000B49284608F0A8FF50B923781BB9FFF73E
:1043B00053FE084B18602046BDE83840FFF776BF33
:1043C00038BD00BF8056011092560110C4900110F4
:1043D000AB560110C09001102DE9F04393B0984600
:1043E000BDF86C50BDF87040BDF8689004FB05F353
:1043F00007468B424FF0FF30164611904FD81311ED
:1044000009D108EB0503B3F5A06F4DDC09EB0403FC
:10441000B3F5487F15E0012B09D108EB0503B3F58F
:10442000207F41DC09EB0403B3F5C87F09E0022BD0
:1044300038D108EB0503B3F5A07F35DC09EB0403A5
:10444000C82B31DC12A806F00F0300F8053DFFF77A
:104450006FFF002828DB164B0220B3F900200990DB
:1044600011AB00210C930790059003900423114891
:1044700001930E910D910B910A940895CDF8189027
:10448000CDF81080029700960123006801F015F81E
:10449000119848B9084B1F609D80DC8004E06FF0E4
:1044A000010001E06FF0020013B0BDE8F08300BF2F
:1044B0005880011008910110B89001102DE9F047C3
:1044C0008AB01E46129D204F90461A882B8806936C
:1044D0008A460021099103FB02F10223059304920D
:1044E00003931A4A9DF8503008910293B121412359
:1044F0008DE80C0081460791642339464FF49032D1
:10450000139800F0F0FC2988029131880191B8F8E5
:10451000001000910446C0F5903100F18050BAF8C7
:10452000003099F8002000F50020FFF755FF338890
:104530002A88804602FB03423946139800F091F91D
:1045400040460AB0BDE8F08700000810424138310B
:104550001FB501240294079C0194069C0094FFF768
:10456000ADFF04B010BD000030B5502387B000246B
:104570008DE81800484A494801234FF4807101250D
:1045800002F0BAFD4649454802F0B0FE2B46454AC6
:10459000019440F202210095434802F0ADFD4049EC
:1045A000414802F0A3FE0194009404233F4A40488E
:1045B000294602F0A1FD2B463E4A0194009440F2A8
:1045C00002213D4802F098FD35493B4802F08EFE3D
:1045D0002B463A4A019440F202210095384802F0F5
:1045E0008BFD2F49364802F081FE0423019400948C
:1045F0002E4A3448294602F07FFD224603A9274867
:1046000002F052FD22460DF10D01274802F04CFD4B
:1046100022460DF10E01284802F046FD22460DF11A
:104620000F01274802F040FD03A8FFF77BFD0DF1C5
:104630000D00FFF761FE9DF80D4084B9224D2A68F8
:1046400032B1234604211A4802F02CFE2C6006E009
:1046500004A9174802F028FD04A8FFF74BFD0DF14F
:104660000E00FFF723FE9DF80E309BB99DF80F401A
:1046700084B9164D2A6832B123460421114802F04C
:1046800011FE2C6006E005A90E4802F00DFD05A8FC
:10469000FFF718FD07B030BDBE560110805601105F
:1046A000D94000102F570110925601109C6601103E
:1046B0007657011080570110AB560110F1570110C9
:1046C0007358011092580110C4900110C09001104D
:1046D00013B50420FCF798FE6021044603F0F6FCB5
:1046E000134BA02120461C6003F04CFD28211148EB
:1046F000FFF734FD02A8002400F8014DFFF718FE73
:104700000D4B0E49186800F03FF90D4B0D49186824
:10471000224600F0DFFE0C4BA042188003DBFFF7BF
:1047200023FF204601E04FF0FF3002B010BD00BF74
:10473000C89001106C62011004910110A460011076
:10474000089101106C5E011058800110024B00228C
:104750001A60DA809A807047B89001107047002084
:10476000704710B50023934203DACC5CC454013384
:10477000F9E710BD90F83B007047836813B14360C0
:10478000002383607047F0B5002351F823200468AC
:104790009E008F19002A32D0092B30DC251D12F81B
:1047A000012C0560256815B96FF00200F0BD12F00C
:1047B000800F12D102F00F02012A03D18A59127818
:1047C0002A701AE0022A03D18A5912882A8014E03A
:1047D000042AE9D18A59126802E0A12A8A5901D132
:1047E0002A600AE012682A6004F108020260626826
:1047F0000133002AD8D07C6814600133C5E7231D3B
:10480000036020680028CFD1F0BDF8B590F83B30A8
:1048100005460E4617460BB98A061FD5EC6824B923
:10482000330606D54FF0FF300EE04FF0FF30002486
:104830000AE00020F8BD2B683A46DB68314628467E
:1048400098470028F5D0013495F83930A342F2DCBE
:10485000002805DA002385F83B30F8BD6FF005002D
:10486000F8BD10B504468068636810B9A360616044
:1048700001E08B420FD1236AD21AE26094F83A2009
:1048800062B918212046FFF7C0FF02462046FFF715
:1048900074FF104610BD6FF0040010BD002010BD65
:1048A000F8B5858E0E4940352F01044638460CF088
:1048B000A7FA064688B13A46002108F06FFCA28E9E
:1048C000216B1201304608F0CFFB206B08B1FCF7DA
:1048D000A1FD2663A5860020F8BD6FF00400F8BD99
:1048E000107B0110F8B506460F460025ACB2B28E1B
:1048F00023B2934208DA1B01326BD05838B13946E3
:1049000008F0FAFC18B904E04FF6FF7401E0013535
:10491000ECE720B2F8BDF8B504460D461646FDB1E9
:1049200029462046FFF7DEFF002812DAB4F834E00B
:104930000027B8B203B2734505DA1A01216B8A5811
:104940000137002AF5D1734503D12046FFF7A8FFB0
:10495000E5E7226B03B21B01D118D5504E6001E090
:104960004FF6FF7000B2F8BD38B505461C46FFF79C
:10497000D2FF0028A1BF2A6B02EB0010C460002008
:10498000B8BF4FF0FF3038BD38B5054601F1080417
:1049900054F8081C39B1234654F8042C2846FFF774
:1049A000E3FF1834F4E7084638BD41857047818439
:1049B000704738B504461546FFF794FF236B2A88E5
:1049C00003EB00131A8138BD437E70B5054613B161
:1049D0006FF0040070BD11B94469803401E001F149
:1049E0008004094920460CF00BFA06460028EFD057
:1049F0006A69696808F038FB686808B1FCF70AFD65
:104A00006E606C61002070BD107B01102DE9F04FCD
:104A1000884685B01F46054640B190F83A30006A96
:104A200013B100F1040902E0814600E08146012350
:104A3000C9EB020A01933B6893F800B01A1D3A6073
:104A4000BBF1000F00F0DE800BF0BF02012A09F17C
:104A5000010408EB090608F809B008D13A68111DED
:104A60001268396009F1020608F80420B0E0022A51
:104A700012D13A68E60748BF24F0010402F10401AC
:104A800048BF0234396008EB0401128801F801BC08
:104A9000A61C28F804209BE0042A02D0BBF1640F76
:104AA00011D13A68A00718BF24F0030402F10401F1
:104AB00018BF0434396008EB0401126801F801BC26
:104AC00048F8042016E0142A16D13A68073222F07A
:104AD000070202F108013960D2E9000107F074FD14
:104AE000A1071CBF24F00304043408EB040202F8FD
:104AF00001BC1060261D6BE0A12A23D13A68111D6C
:104B0000396013680293184608F0C2FD421CA618CB
:104B1000AAF108018E420FD915B96FF0040075E0B3
:104B2000314628460392FFF74FFF00286EDBD5F889
:104B30000480D5F814A0039A029908EB040008F049
:104B400093FA45E012065FD53968081D3860086899
:104B50000BF0300130290BF00F0201BF00230BF0E6
:104B60008F0B86F800B00193A3071CBF24F0030449
:104B7000043408EB0401261D01F801BC511E31422A
:104B800018BF5142019B48F804001CBF0E40B618E4
:104B9000F3B100FB02F3F418AAF1080294420DD914
:104BA0000293002DB9D021462846FFF70DFF0028BB
:104BB0002CDBD5F80480D5F814A0029B39680A1DB7
:104BC0003A6008EB06001A46096808F04DFA2646D6
:104BD0002DB1AA7E1AB91BF0400F18BF4E46AAF19C
:104BE00008039E4201D8B14625E7002D95D03146F5
:104BF0002846FFF7E9FE002808DBD5F80480D5F841
:104C000014A0F0E7484601E06FF0020005B0BDE8EF
:104C1000F08F0B4610B5426941680446FFF7F6FE77
:104C20000028A1BF236AC01AE060002010BD0EB4A6
:104C3000F3B59DF81C5090F83A60C768182D08BF6E
:104C4000002302A908BF80F83A3008AB41F8043DC0
:104C50000446FFF7DEFF182D03D094F83A3033B93D
:104C600028B9002218212046FFF7CFFDE76084F81D
:104C70003A6002B0BDE8F04003B070472DE9F3415F
:104C80000D880368003518BF01250E4604462946E5
:104C90001B6890469847338884F83B50E38698F821
:104CA0000030003318BF012300210746A37601918D
:104CB000E37E009101222046FFF7B9FF384602B09B
:104CC000BDE8F08170B5B1F90020838E066B88B025
:104CD00000249A4205468DF81F4012DA1301F1189C
:104CE000F35873B1C96861B105940494CA6803921A
:104CF000A1220191029200922146FFF798FF2046DF
:104D000010E000210DF11F001301A122039001907A
:104D10000591049102920092F3582846FFF787FF0D
:104D20004FF0FF3008B070BD2DE9F0431C4604235E
:104D3000C36001F0200389B005468846914603F020
:104D4000FF06BBB10123A02980F83A3004D194E8D2
:104D50000600FFF72EFEA2E0A12904D194E8060088
:104D6000FFF78CFF9BE0A22940F097802168FFF7B6
:104D7000A9FF94E0182905D1036821469B6898474C
:104D80003046ADE0838E9A4280F2A680002AC0F2BF
:104D9000A380036B03EB02135F68002F00F09C807D
:104DA0003046C3B2013054F82320002AF9D1012241
:104DB00085F83A2013B92846B84770E0012B03D193
:104DC00029462068B8476AE0022B04D12A4694E8B5
:104DD0000300B84763E0032B04D12B4694E8070097
:104DE000B8475CE0042B04D1009594E80F00B84765
:104DF00055E0052B06D123690093019594E80F0037
:104E0000B8474CE0062B08D16369019323690093EE
:104E1000029594E80F00B84741E0072B0AD1A36937
:104E200002936369019323690093039594E80F004B
:104E3000B84734E0082B0CD1E3690393A3690293CC
:104E40006369019323690093049594E80F00B847C0
:104E500025E0092B0ED1236A0493E3690393A36928
:104E600002936369019323690093059594E80F0009
:104E7000B84714E00A2B10D1636A0593236A0493A0
:104E8000E3690393A3690293636901932369009320
:104E9000069594E80F00B84701E04FF0FF305FFA45
:104EA00088F8002318F0800F85F83A3017D06A6828
:104EB0002B6AD0502B6B03EB091308F03F01B3F9B9
:104EC000082041F040012846FFF79FFC0246284693
:104ED000FFF753FC104603E04FF0FF3000E00020E6
:104EE00009B0BDE8F0830CB413B504AC02AB54F8C0
:104EF000042B43F8044DFFF789FD02B0BDE81040D4
:104F000002B070472DE9F84307468846154602F17E
:104F10000A0916460024731B4445DBB22CD24E45C9
:104F20002ED03A5D06F8012B110604F1010002F0C3
:104F30000F0307D45A1E02421EBF5A421040C01827
:104F40001C18E8E702F0BF02A12A05D1384408F096
:104F50009FFB02340444DEE782071CBF20F00300FD
:104F600004305A1E3C58043002421EBF5A421040C0
:104F7000C01804FB0304CEE70020E854BDE8F88322
:104F80004FF0FF30BDE8F8832DE9F0414FF0000805
:104F900004460E4615464746B04542D20A2F46D033
:104FA00014F8082012F0800F08F1010002F00F0140
:104FB0000FFA87FE0BD14B1E03421EBF4A42104020
:104FC0004018231845F82E3001EB000826E002F0C7
:104FD000BF02A12A08D1204445F82E0008F058FB52
:104FE00008F10208804419E083071CBF20F0030089
:104FF000043004EB000C225845F82EC004307B1C12
:105000004F1E07421CBF4F423840DBB218BF40184A
:10501000271845F8237002FB01081F467B1CDFB2EE
:10502000BAE73BB2002045F82300BDE8F0814FF01D
:10503000FF30BDE8F08110B58CB0144601AAFFF72F
:10504000A3FF002803DB01A92046FFF79CFB0CB05F
:1050500010BD10B500234418A04204D010F8012B55
:1050600013449BB2F8E7581880B210BD38B54368B6
:1050700004461971104818606168E06AE3688B6043
:105080000368CA801D68638D4022A847002812DB90
:10509000E268236A1A44402A0CD9637E53B9E06A55
:1050A00061680368403A1D68638D4031A84700EA93
:1050B000E07038BD002038BD5555AAAA13B5034687
:1050C00009B1592200E09522D86A8DF807200268BC
:1050D0005B8D14680DF107010122A0470028B4BFC1
:1050E0006FF06500002002B010BD00002DE9F7430D
:1050F0000446C06A904602680F46556803B1A38C07
:1051000001220DF10501A847051E63DB02D14FF016
:10511000FF355FE0DFF8C49000269DF80530E06AB7
:105120001B0643EA16264E45238D026808D05568B3
:105130000DF105010122A847051E4BDBEDD1E6E785
:1051400056686168226AB047002841DB236A9D42A5
:10515000DDDB63681B783B706768256A7B887E6847
:10516000A8F800302946E6603846FFF772FFC5F11F
:1051700040058046E06AAE4228BF2E46036806F12D
:1051800002095D68238D4A463946A847051E21DB82
:105190004D45BCDB6168022231440DF10600FFF78A
:1051A000E0FA31466068FFF754FFBDF8063040442E
:1051B000834206D1266101212046FFF77FFF0025AB
:1051C00008E000212046FFF779FF6FF0010501E0BC
:1051D0006FF06405284603B0BDE8F0835555AAAAD0
:1051E0002DE9F843DFF88C900446884617461E46A2
:1051F000E06A616803685D680EB1A38C00E0334625
:105200004022A847051E19DB032DF1DD63681A68EB
:105210004A45EDD11B7988F800306368DA889968CF
:10522000236A3A80E16019446369994209D92046AA
:10523000FFF7CAFB002804DABDE8F8832846BDE87A
:10524000F883E668236A1E44B54201D2637E2BB11F
:105250000020BDE8F8830544AE42F9D9E06A6168F0
:105260000368721B5F68238D2944B8470028F2DA6F
:10527000BDE8F8835555AAAA2DE9F347036AC1682A
:105280001944436903319942044605D9FFF79CFB51
:10529000061E01DA304659E00027B8462169E56864
:1052A000A94249D2E38ED4F82CE060686D1A9D4281
:1052B00028BF1D46DEF800300144D3F80490E38C8B
:1052C000EA1C7046C847002838DBAB1CB34238DA0A
:1052D000236961682B44022211F803A001331944A9
:1052E0000DF10600FFF73DFAD4F810906068691CD4
:1052F0004844FFF7AEFEBDF8063083420FD1D045DB
:1053000002BF4D4408F1010825614FF0010120461C
:1053100008BF5FFA88F80027FFF7D0FEBEE700213C
:105320002046FFF7CBFE7B1C94F83820DBB29A4274
:105330000AD90237FFB2B1E7002007E06FF064003E
:1053400004E04FF0FF3001E06FF0030002B0BDE871
:10535000F0872DE9F84304460F4690461D469DF818
:105360002090FFF70AFA067E26B14B46FFF738FF7A
:1053700016E001364B46424639462046FFF7B6FE58
:10538000831C07D194F838309E42F2D36FF00300AB
:10539000BDE8F88308B1BDE8F8832046FFF76CFF4D
:1053A000D8B93B78206A13F0400F0ED063681844D8
:1053B000042200F8042C6168236A0B4403F8012CD2
:1053C000E368206A13440438E3606368E1682A46AE
:1053D0001844BDE8F843FFF7D7BDBDE8F8832DE9D1
:1053E000F0414FB290B0002F04460D469046049312
:1053F00003DB90F83B30002B5AD000262046E660B5
:10540000FFF7BBF904A92046FFF703FC002851DB96
:10541000002FAABF80238DF80D508DF80D30424625
:105420009DF80D102046B8BF3546FFF7EEF900286D
:1054300040D1E9073AD4E06A03689B68984705AE13
:10544000012300930DF10E0233460DF10D012046AC
:10545000FFF77FFF70BB9DF80D104A0610D423683C
:10546000BDF90E205F6820463346B847E06A0368FE
:10547000DB689847A38C9842E2D96FF0640019E08A
:10548000AB070DD5049B1A1D04921A68002AF9D0A7
:10549000002356F8231042F8231039B10133F8E7FE
:1054A000314604A8FFF76FF9002803DB002001E074
:1054B0006FF0050010B0BDE8F0810CB407B504AB87
:1054C00033F9042B0193FFF78AFF03B05DF804EB77
:1054D00002B0704730B5044689B00D4612B1FFF7EF
:1054E0001AFA01E04FF6FF7007AB0022049300B2F6
:1054F000022302900193059203920095A123A0211B
:105500002046FFF7DAFF0028ACBFBDF81C004FF6BD
:10551000FF7000B209B030BD30B500228BB0044638
:105520000D4609B1C38E00E00B4606920DF1230132
:105530000392E27E0591029209A90122049101924F
:10554000009300220223A1212046FFF7B6FF002886
:1055500008DB9DF82330099884F83B50003318BFCE
:105560000123A3760BB030BD10B504460B68E16291
:1055700008461B6900219847C0F340002076E06A86
:10558000036800211B69984700F001006076E06A1B
:1055900003685B699847237EE0860BB10C2300E02B
:1055A00008232362637E63B1E06A036801211B69FB
:1055B00098476060E06A036802211B699847606150
:1055C00005E08020606106490BF01AFC6060207FD6
:1055D00028B120460121BDE81040FFF79DBF10BD56
:1055E000107B011070B51E46184B03600446032360
:1055F00080F8383080F8393000254FF47A7383848E
:10560000C56205764576456085604FF4FA7063851E
:105610004023E0842085E17622770D4984F83A50D2
:1056200084F83B50A576A3864FF480600BF0E8FB2E
:10563000A28E20631201294607F0B0FD1EB131464B
:105640002046FFF791FF204670BD00BF9C6201100D
:10565000107B0110F0B505468FB00E4600240023E4
:1056600000930DF10A0203AB0DF109012846FFF783
:1056700070FE58B92B68BDF90A205F689DF80910C3
:1056800003AB2846B8470EB10134E8E720460FB017
:10569000F0BD37B5C06A03680C465D680DF10701BF
:1056A00013460122A84700280ADB0CD09DF80730DA
:1056B000592B4FF0000006BF01232370207004E037
:1056C0006FF0640001E04FF0FF3003B030BDF7B57C
:1056D00002AE002306F8043D04462169E568A942AC
:1056E0004AD2E38ED4F82CE060686D1A9D4228BF40
:1056F0001D46DEF8003001441F68638D2A4670465F
:10570000B847002802DA6FF0650036E0E06A036807
:1057100001221F68638D3146B8470028F3DB2369F7
:10572000606829461844FFF794FC0121074630467B
:10573000FFF78FFC3844ADF80600E06A03680222E8
:105740001F68638D0DF10601B8470028DBDBE28C92
:105750000DF105012046FFF79CFF00280DDB9DF8A9
:105760000530002BB9D023691D449DF80430256114
:1057700001338DF80430B0E7002003B0F0BD000025
:10578000F7B504460E46C06A2A4B02A9154641F8F1
:10579000043D036804221F68638DB847002846DB78
:1057A00063681E706168E06AE3684B6003684D805F
:1057B000226A1D68638DA847002838DB6668216A65
:1057C0003046FFF746FCE568ADF80200E06A402D80
:1057D000036828BF40251F68638D2A463146B847B5
:1057E000002802DA6FF0650021E029466068FFF7C3
:1057F00030FCBDF8023002A9184421F8060DE06A19
:10580000036802221E68638DB0470028EADBA28C81
:105810000DF101012046FFF73CFF002807DB9DF852
:10582000013013B12561002001E06FF0010003B0E9
:10583000F0BD00BF5555AAAA037E70B504460D46BB
:1058400016461BB1BDE87040FFF710BC3246294632
:105850002046FFF795FF821CF8D020B92046BDE80E
:105860007040FFF734BF70BD09B100230362C26905
:1058700082B1036A11688B4220DA926802EB8301DD
:1058800032F8232049880281013304224181828138
:10589000C28103620023436103614389B0F90410AC
:1058A00043F001039AB2038943F001039BB201FB69
:1058B000023302681344836101207047002070475F
:1058C00038B500230360C3808380C381838104468D
:1058D0004381038103C984E803001068516804F11F
:1058E000080503C5E36101212046FFF7BDFF2046FF
:1058F00038BD002310B50360C38083800446C38194
:1059000083814381038103C9E26184E803000121AB
:105910002046FFF7A9FF204610BD2DE9F0414FF0CA
:105920000008838904699C420AD34369B0F90440A2
:10593000C0F8108002334361836903EB4403836141
:10594000C38944699C4234D286690369F518F45CC2
:1059500015F801CCB0F904505D1B16F805E035448C
:1059600015F8013C2AB10CEB0E056D101470557042
:1059700093700569C1B104EB0C071F44252F02DCAD
:1059800002350561CDE704EB0E061E44252EF7DD3A
:10599000CCEB0404CEEB0303E403DB0394FBF7F44A
:1059A00093FBF6F30C604B60023505610120BDE806
:1059B000F0810020BDE8F081C36970B504460D4652
:1059C000164653B1FFF7A9FF58B901462046FFF725
:1059D0004BFF30B1324629462046BDE87040FFF704
:1059E0009CBF70BD2DE9F3470DF1080900248846DE
:1059F000012182468DF806408DF8054009F8044DD6
:105A0000FFF732FF2646254627464A4600215046E4
:105A1000FFF7D2FF50B19DF804301F449DF80530C8
:105A20001D449DF8063001341E44EEE7B7FBF4F741
:105A3000B5FBF4F5B6FBF4F0B8F1000F01D0C8F8EF
:105A400000402D0245EA0745284302B0BDE8F08733
:105A50002DE9F04F85B08B4604AD00240121584656
:105A600016469A46039445F8084D2746FFF7FCFE74
:105A7000A046A1460194002229465846FFF79CFF04
:105A800033687168D6F80CE0326998B10298984290
:105A9000C8BF09F1010988420399019BB8BF08F109
:105AA00001087145C8BF013701339142B8BF0134C5
:105AB0000193E0E7DDED017AB8EE677A07EE909AA0
:105AC000F8EE677A1944C7EE876A0223724491FBA5
:105AD000F3F192FBF3F207EE908AF8EE677ACAEDE3
